{
  "contractName": "Sploot",
  "abi": [
    {
      "inputs": [],
      "stateMutability": "nonpayable",
      "type": "constructor"
    },
    {
      "anonymous": false,
      "inputs": [
        {
          "indexed": true,
          "internalType": "address",
          "name": "owner",
          "type": "address"
        },
        {
          "indexed": true,
          "internalType": "address",
          "name": "approved",
          "type": "address"
        },
        {
          "indexed": true,
          "internalType": "uint256",
          "name": "tokenId",
          "type": "uint256"
        }
      ],
      "name": "Approval",
      "type": "event"
    },
    {
      "anonymous": false,
      "inputs": [
        {
          "indexed": true,
          "internalType": "address",
          "name": "owner",
          "type": "address"
        },
        {
          "indexed": true,
          "internalType": "address",
          "name": "operator",
          "type": "address"
        },
        {
          "indexed": false,
          "internalType": "bool",
          "name": "approved",
          "type": "bool"
        }
      ],
      "name": "ApprovalForAll",
      "type": "event"
    },
    {
      "anonymous": false,
      "inputs": [
        {
          "indexed": true,
          "internalType": "address",
          "name": "previousOwner",
          "type": "address"
        },
        {
          "indexed": true,
          "internalType": "address",
          "name": "newOwner",
          "type": "address"
        }
      ],
      "name": "OwnershipTransferred",
      "type": "event"
    },
    {
      "anonymous": false,
      "inputs": [
        {
          "indexed": true,
          "internalType": "address",
          "name": "from",
          "type": "address"
        },
        {
          "indexed": true,
          "internalType": "address",
          "name": "to",
          "type": "address"
        },
        {
          "indexed": true,
          "internalType": "uint256",
          "name": "tokenId",
          "type": "uint256"
        }
      ],
      "name": "Transfer",
      "type": "event"
    },
    {
      "inputs": [
        {
          "internalType": "address",
          "name": "to",
          "type": "address"
        },
        {
          "internalType": "uint256",
          "name": "tokenId",
          "type": "uint256"
        }
      ],
      "name": "approve",
      "outputs": [],
      "stateMutability": "nonpayable",
      "type": "function"
    },
    {
      "inputs": [
        {
          "internalType": "address",
          "name": "owner",
          "type": "address"
        }
      ],
      "name": "balanceOf",
      "outputs": [
        {
          "internalType": "uint256",
          "name": "",
          "type": "uint256"
        }
      ],
      "stateMutability": "view",
      "type": "function",
      "constant": true
    },
    {
      "inputs": [
        {
          "internalType": "uint256",
          "name": "tokenId",
          "type": "uint256"
        }
      ],
      "name": "getApproved",
      "outputs": [
        {
          "internalType": "address",
          "name": "",
          "type": "address"
        }
      ],
      "stateMutability": "view",
      "type": "function",
      "constant": true
    },
    {
      "inputs": [
        {
          "internalType": "address",
          "name": "owner",
          "type": "address"
        },
        {
          "internalType": "address",
          "name": "operator",
          "type": "address"
        }
      ],
      "name": "isApprovedForAll",
      "outputs": [
        {
          "internalType": "bool",
          "name": "",
          "type": "bool"
        }
      ],
      "stateMutability": "view",
      "type": "function",
      "constant": true
    },
    {
      "inputs": [],
      "name": "maxSupply",
      "outputs": [
        {
          "internalType": "uint256",
          "name": "",
          "type": "uint256"
        }
      ],
      "stateMutability": "view",
      "type": "function",
      "constant": true
    },
    {
      "inputs": [],
      "name": "name",
      "outputs": [
        {
          "internalType": "string",
          "name": "",
          "type": "string"
        }
      ],
      "stateMutability": "view",
      "type": "function",
      "constant": true
    },
    {
      "inputs": [],
      "name": "owner",
      "outputs": [
        {
          "internalType": "address",
          "name": "",
          "type": "address"
        }
      ],
      "stateMutability": "view",
      "type": "function",
      "constant": true
    },
    {
      "inputs": [
        {
          "internalType": "uint256",
          "name": "tokenId",
          "type": "uint256"
        }
      ],
      "name": "ownerOf",
      "outputs": [
        {
          "internalType": "address",
          "name": "",
          "type": "address"
        }
      ],
      "stateMutability": "view",
      "type": "function",
      "constant": true
    },
    {
      "inputs": [],
      "name": "renounceOwnership",
      "outputs": [],
      "stateMutability": "nonpayable",
      "type": "function"
    },
    {
      "inputs": [
        {
          "internalType": "address",
          "name": "from",
          "type": "address"
        },
        {
          "internalType": "address",
          "name": "to",
          "type": "address"
        },
        {
          "internalType": "uint256",
          "name": "tokenId",
          "type": "uint256"
        }
      ],
      "name": "safeTransferFrom",
      "outputs": [],
      "stateMutability": "nonpayable",
      "type": "function"
    },
    {
      "inputs": [
        {
          "internalType": "address",
          "name": "from",
          "type": "address"
        },
        {
          "internalType": "address",
          "name": "to",
          "type": "address"
        },
        {
          "internalType": "uint256",
          "name": "tokenId",
          "type": "uint256"
        },
        {
          "internalType": "bytes",
          "name": "_data",
          "type": "bytes"
        }
      ],
      "name": "safeTransferFrom",
      "outputs": [],
      "stateMutability": "nonpayable",
      "type": "function"
    },
    {
      "inputs": [
        {
          "internalType": "address",
          "name": "operator",
          "type": "address"
        },
        {
          "internalType": "bool",
          "name": "approved",
          "type": "bool"
        }
      ],
      "name": "setApprovalForAll",
      "outputs": [],
      "stateMutability": "nonpayable",
      "type": "function"
    },
    {
      "inputs": [
        {
          "internalType": "bytes4",
          "name": "interfaceId",
          "type": "bytes4"
        }
      ],
      "name": "supportsInterface",
      "outputs": [
        {
          "internalType": "bool",
          "name": "",
          "type": "bool"
        }
      ],
      "stateMutability": "view",
      "type": "function",
      "constant": true
    },
    {
      "inputs": [],
      "name": "symbol",
      "outputs": [
        {
          "internalType": "string",
          "name": "",
          "type": "string"
        }
      ],
      "stateMutability": "view",
      "type": "function",
      "constant": true
    },
    {
      "inputs": [
        {
          "internalType": "uint256",
          "name": "tokenId",
          "type": "uint256"
        }
      ],
      "name": "tokenURI",
      "outputs": [
        {
          "internalType": "string",
          "name": "",
          "type": "string"
        }
      ],
      "stateMutability": "view",
      "type": "function",
      "constant": true
    },
    {
      "inputs": [
        {
          "internalType": "address",
          "name": "from",
          "type": "address"
        },
        {
          "internalType": "address",
          "name": "to",
          "type": "address"
        },
        {
          "internalType": "uint256",
          "name": "tokenId",
          "type": "uint256"
        }
      ],
      "name": "transferFrom",
      "outputs": [],
      "stateMutability": "nonpayable",
      "type": "function"
    },
    {
      "inputs": [
        {
          "internalType": "address",
          "name": "newOwner",
          "type": "address"
        }
      ],
      "name": "transferOwnership",
      "outputs": [],
      "stateMutability": "nonpayable",
      "type": "function"
    },
    {
      "inputs": [],
      "name": "mint",
      "outputs": [],
      "stateMutability": "nonpayable",
      "type": "function"
    },
    {
      "inputs": [
        {
          "internalType": "uint256",
          "name": "_tokenId",
          "type": "uint256"
        }
      ],
      "name": "getIdOwner",
      "outputs": [
        {
          "internalType": "address",
          "name": "",
          "type": "address"
        }
      ],
      "stateMutability": "view",
      "type": "function",
      "constant": true
    },
    {
      "inputs": [
        {
          "internalType": "address",
          "name": "account",
          "type": "address"
        }
      ],
      "name": "getOwnerCount",
      "outputs": [
        {
          "internalType": "uint256",
          "name": "",
          "type": "uint256"
        }
      ],
      "stateMutability": "view",
      "type": "function",
      "constant": true
    },
    {
      "inputs": [],
      "name": "getTotalSupply",
      "outputs": [
        {
          "internalType": "uint256",
          "name": "",
          "type": "uint256"
        }
      ],
      "stateMutability": "view",
      "type": "function",
      "constant": true
    }
  ],
  "bytecode": "0x6080604052606460075560006008553480156200001b57600080fd5b506040518060400160405280600681526020017f53504c4f4f5400000000000000000000000000000000000000000000000000008152506040518060400160405280600681526020017f53504c4f4f5400000000000000000000000000000000000000000000000000008152508160009080519060200190620000a0929190620001f1565b508060019080519060200190620000b9929190620001f1565b505050620000dc620000d06200012360201b60201c565b6200012b60201b60201c565b33600a60006101000a81548173ffffffffffffffffffffffffffffffffffffffff021916908373ffffffffffffffffffffffffffffffffffffffff16021790555062000306565b600033905090565b6000600660009054906101000a900473ffffffffffffffffffffffffffffffffffffffff16905081600660006101000a81548173ffffffffffffffffffffffffffffffffffffffff021916908373ffffffffffffffffffffffffffffffffffffffff1602179055508173ffffffffffffffffffffffffffffffffffffffff168173ffffffffffffffffffffffffffffffffffffffff167f8be0079c531659141344cd1fd0a4f28419497f9722a3daafe3b4186f6b6457e060405160405180910390a35050565b828054620001ff90620002d0565b90600052602060002090601f0160209004810192826200022357600085556200026f565b82601f106200023e57805160ff19168380011785556200026f565b828001600101855582156200026f579182015b828111156200026e57825182559160200191906001019062000251565b5b5090506200027e919062000282565b5090565b5b808211156200029d57600081600090555060010162000283565b5090565b7f4e487b7100000000000000000000000000000000000000000000000000000000600052602260045260246000fd5b60006002820490506001821680620002e957607f821691505b602082108114156200030057620002ff620002a1565b5b50919050565b612c0580620003166000396000f3fe608060405234801561001057600080fd5b50600436106101375760003560e01c80638da5cb5b116100b8578063b88d4fde1161007c578063b88d4fde1461033a578063c4e41b2214610356578063c87b56dd14610374578063d5abeb01146103a4578063e985e9c5146103c2578063f2fde38b146103f257610137565b80638da5cb5b1461028257806391308711146102a057806395d89b41146102d0578063a22cb465146102ee578063b51b263e1461030a57610137565b806323b872dd116100ff57806323b872dd146101e057806342842e0e146101fc5780636352211e1461021857806370a0823114610248578063715018a61461027857610137565b806301ffc9a71461013c57806306fdde031461016c578063081812fc1461018a578063095ea7b3146101ba5780631249c58b146101d6575b600080fd5b61015660048036038101906101519190611a8a565b61040e565b6040516101639190611ad2565b60405180910390f35b6101746104f0565b6040516101819190611b86565b60405180910390f35b6101a4600480360381019061019f9190611bde565b610582565b6040516101b19190611c4c565b60405180910390f35b6101d460048036038101906101cf9190611c93565b610607565b005b6101de61071f565b005b6101fa60048036038101906101f59190611cd3565b610745565b005b61021660048036038101906102119190611cd3565b6107a5565b005b610232600480360381019061022d9190611bde565b6107c5565b60405161023f9190611c4c565b60405180910390f35b610262600480360381019061025d9190611d26565b610877565b60405161026f9190611d62565b60405180910390f35b61028061092f565b005b61028a6109b7565b6040516102979190611c4c565b60405180910390f35b6102ba60048036038101906102b59190611d26565b6109e1565b6040516102c79190611d62565b60405180910390f35b6102d86109f3565b6040516102e59190611b86565b60405180910390f35b61030860048036038101906103039190611da9565b610a85565b005b610324600480360381019061031f9190611bde565b610c06565b6040516103319190611c4c565b60405180910390f35b610354600480360381019061034f9190611f1e565b610c18565b005b61035e610c7a565b60405161036b9190611d62565b60405180910390f35b61038e60048036038101906103899190611bde565b610c84565b60405161039b9190611b86565b60405180910390f35b6103ac610d2b565b6040516103b99190611d62565b60405180910390f35b6103dc60048036038101906103d79190611fa1565b610d31565b6040516103e99190611ad2565b60405180910390f35b61040c60048036038101906104079190611d26565b610dc5565b005b60007f80ac58cd000000000000000000000000000000000000000000000000000000007bffffffffffffffffffffffffffffffffffffffffffffffffffffffff1916827bffffffffffffffffffffffffffffffffffffffffffffffffffffffff191614806104d957507f5b5e139f000000000000000000000000000000000000000000000000000000007bffffffffffffffffffffffffffffffffffffffffffffffffffffffff1916827bffffffffffffffffffffffffffffffffffffffffffffffffffffffff1916145b806104e957506104e882610ebd565b5b9050919050565b6060600080546104ff90612010565b80601f016020809104026020016040519081016040528092919081815260200182805461052b90612010565b80156105785780601f1061054d57610100808354040283529160200191610578565b820191906000526020600020905b81548152906001019060200180831161055b57829003601f168201915b5050505050905090565b600061058d82610f27565b6105cc576040517f08c379a00000000000000000000000000000000000000000000000000000000081526004016105c3906120b4565b60405180910390fd5b6004600083815260200190815260200160002060009054906101000a900473ffffffffffffffffffffffffffffffffffffffff169050919050565b6000610612826107c5565b90508073ffffffffffffffffffffffffffffffffffffffff168373ffffffffffffffffffffffffffffffffffffffff161415610683576040517f08c379a000000000000000000000000000000000000000000000000000000000815260040161067a90612146565b60405180910390fd5b8073ffffffffffffffffffffffffffffffffffffffff166106a2610f93565b73ffffffffffffffffffffffffffffffffffffffff1614806106d157506106d0816106cb610f93565b610d31565b5b610710576040517f08c379a0000000000000000000000000000000000000000000000000000000008152600401610707906121d8565b60405180910390fd5b61071a8383610f9b565b505050565b61072b33600854611054565b6008600081548092919061073e90612227565b9190505550565b610756610750610f93565b82611072565b610795576040517f08c379a000000000000000000000000000000000000000000000000000000000815260040161078c906122e2565b60405180910390fd5b6107a0838383611150565b505050565b6107c083838360405180602001604052806000815250610c18565b505050565b6000806002600084815260200190815260200160002060009054906101000a900473ffffffffffffffffffffffffffffffffffffffff169050600073ffffffffffffffffffffffffffffffffffffffff168173ffffffffffffffffffffffffffffffffffffffff16141561086e576040517f08c379a000000000000000000000000000000000000000000000000000000000815260040161086590612374565b60405180910390fd5b80915050919050565b60008073ffffffffffffffffffffffffffffffffffffffff168273ffffffffffffffffffffffffffffffffffffffff1614156108e8576040517f08c379a00000000000000000000000000000000000000000000000000000000081526004016108df90612406565b60405180910390fd5b600360008373ffffffffffffffffffffffffffffffffffffffff1673ffffffffffffffffffffffffffffffffffffffff168152602001908152602001600020549050919050565b610937610f93565b73ffffffffffffffffffffffffffffffffffffffff166109556109b7565b73ffffffffffffffffffffffffffffffffffffffff16146109ab576040517f08c379a00000000000000000000000000000000000000000000000000000000081526004016109a290612472565b60405180910390fd5b6109b560006113ac565b565b6000600660009054906101000a900473ffffffffffffffffffffffffffffffffffffffff16905090565b60006109ec82610877565b9050919050565b606060018054610a0290612010565b80601f0160208091040260200160405190810160405280929190818152602001828054610a2e90612010565b8015610a7b5780601f10610a5057610100808354040283529160200191610a7b565b820191906000526020600020905b815481529060010190602001808311610a5e57829003601f168201915b5050505050905090565b610a8d610f93565b73ffffffffffffffffffffffffffffffffffffffff168273ffffffffffffffffffffffffffffffffffffffff161415610afb576040517f08c379a0000000000000000000000000000000000000000000000000000000008152600401610af2906124de565b60405180910390fd5b8060056000610b08610f93565b73ffffffffffffffffffffffffffffffffffffffff1673ffffffffffffffffffffffffffffffffffffffff16815260200190815260200160002060008473ffffffffffffffffffffffffffffffffffffffff1673ffffffffffffffffffffffffffffffffffffffff16815260200190815260200160002060006101000a81548160ff0219169083151502179055508173ffffffffffffffffffffffffffffffffffffffff16610bb5610f93565b73ffffffffffffffffffffffffffffffffffffffff167f17307eab39ab6107e8899845ad3d59bd9653f200f220920489ca2b5937696c3183604051610bfa9190611ad2565b60405180910390a35050565b6000610c11826107c5565b9050919050565b610c29610c23610f93565b83611072565b610c68576040517f08c379a0000000000000000000000000000000000000000000000000000000008152600401610c5f906122e2565b60405180910390fd5b610c7484848484611472565b50505050565b6000600854905090565b6060610c8f82610f27565b610cce576040517f08c379a0000000000000000000000000000000000000000000000000000000008152600401610cc590612570565b60405180910390fd5b6000610cd86114ce565b90506000815111610cf85760405180602001604052806000815250610d23565b80610d02846114e5565b604051602001610d139291906125cc565b6040516020818303038152906040525b915050919050565b60075481565b6000600560008473ffffffffffffffffffffffffffffffffffffffff1673ffffffffffffffffffffffffffffffffffffffff16815260200190815260200160002060008373ffffffffffffffffffffffffffffffffffffffff1673ffffffffffffffffffffffffffffffffffffffff16815260200190815260200160002060009054906101000a900460ff16905092915050565b610dcd610f93565b73ffffffffffffffffffffffffffffffffffffffff16610deb6109b7565b73ffffffffffffffffffffffffffffffffffffffff1614610e41576040517f08c379a0000000000000000000000000000000000000000000000000000000008152600401610e3890612472565b60405180910390fd5b600073ffffffffffffffffffffffffffffffffffffffff168173ffffffffffffffffffffffffffffffffffffffff161415610eb1576040517f08c379a0000000000000000000000000000000000000000000000000000000008152600401610ea890612662565b60405180910390fd5b610eba816113ac565b50565b60007f01ffc9a7000000000000000000000000000000000000000000000000000000007bffffffffffffffffffffffffffffffffffffffffffffffffffffffff1916827bffffffffffffffffffffffffffffffffffffffffffffffffffffffff1916149050919050565b60008073ffffffffffffffffffffffffffffffffffffffff166002600084815260200190815260200160002060009054906101000a900473ffffffffffffffffffffffffffffffffffffffff1673ffffffffffffffffffffffffffffffffffffffff1614159050919050565b600033905090565b816004600083815260200190815260200160002060006101000a81548173ffffffffffffffffffffffffffffffffffffffff021916908373ffffffffffffffffffffffffffffffffffffffff160217905550808273ffffffffffffffffffffffffffffffffffffffff1661100e836107c5565b73ffffffffffffffffffffffffffffffffffffffff167f8c5be1e5ebec7d5bd14f71427d1e84f3dd0314c0f7b2291e5b200ac8c7c3b92560405160405180910390a45050565b61106e828260405180602001604052806000815250611646565b5050565b600061107d82610f27565b6110bc576040517f08c379a00000000000000000000000000000000000000000000000000000000081526004016110b3906126f4565b60405180910390fd5b60006110c7836107c5565b90508073ffffffffffffffffffffffffffffffffffffffff168473ffffffffffffffffffffffffffffffffffffffff16148061113657508373ffffffffffffffffffffffffffffffffffffffff1661111e84610582565b73ffffffffffffffffffffffffffffffffffffffff16145b8061114757506111468185610d31565b5b91505092915050565b8273ffffffffffffffffffffffffffffffffffffffff16611170826107c5565b73ffffffffffffffffffffffffffffffffffffffff16146111c6576040517f08c379a00000000000000000000000000000000000000000000000000000000081526004016111bd90612786565b60405180910390fd5b600073ffffffffffffffffffffffffffffffffffffffff168273ffffffffffffffffffffffffffffffffffffffff161415611236576040517f08c379a000000000000000000000000000000000000000000000000000000000815260040161122d90612818565b60405180910390fd5b6112418383836116a1565b61124c600082610f9b565b6001600360008573ffffffffffffffffffffffffffffffffffffffff1673ffffffffffffffffffffffffffffffffffffffff168152602001908152602001600020600082825461129c9190612838565b925050819055506001600360008473ffffffffffffffffffffffffffffffffffffffff1673ffffffffffffffffffffffffffffffffffffffff16815260200190815260200160002060008282546112f3919061286c565b92505081905550816002600083815260200190815260200160002060006101000a81548173ffffffffffffffffffffffffffffffffffffffff021916908373ffffffffffffffffffffffffffffffffffffffff160217905550808273ffffffffffffffffffffffffffffffffffffffff168473ffffffffffffffffffffffffffffffffffffffff167fddf252ad1be2c89b69c2b068fc378daa952ba7f163c4a11628f55a4df523b3ef60405160405180910390a4505050565b6000600660009054906101000a900473ffffffffffffffffffffffffffffffffffffffff16905081600660006101000a81548173ffffffffffffffffffffffffffffffffffffffff021916908373ffffffffffffffffffffffffffffffffffffffff1602179055508173ffffffffffffffffffffffffffffffffffffffff168173ffffffffffffffffffffffffffffffffffffffff167f8be0079c531659141344cd1fd0a4f28419497f9722a3daafe3b4186f6b6457e060405160405180910390a35050565b61147d848484611150565b611489848484846116a6565b6114c8576040517f08c379a00000000000000000000000000000000000000000000000000000000081526004016114bf90612934565b60405180910390fd5b50505050565b606060405180602001604052806000815250905090565b6060600082141561152d576040518060400160405280600181526020017f30000000000000000000000000000000000000000000000000000000000000008152509050611641565b600082905060005b6000821461155f57808061154890612227565b915050600a826115589190612983565b9150611535565b60008167ffffffffffffffff81111561157b5761157a611df3565b5b6040519080825280601f01601f1916602001820160405280156115ad5781602001600182028036833780820191505090505b5090505b6000851461163a576001826115c69190612838565b9150600a856115d591906129b4565b60306115e1919061286c565b60f81b8183815181106115f7576115f66129e5565b5b60200101907effffffffffffffffffffffffffffffffffffffffffffffffffffffffffffff1916908160001a905350600a856116339190612983565b94506115b1565b8093505050505b919050565b611650838361183d565b61165d60008484846116a6565b61169c576040517f08c379a000000000000000000000000000000000000000000000000000000000815260040161169390612934565b60405180910390fd5b505050565b505050565b60006116c78473ffffffffffffffffffffffffffffffffffffffff16611a0b565b15611830578373ffffffffffffffffffffffffffffffffffffffff1663150b7a026116f0610f93565b8786866040518563ffffffff1660e01b81526004016117129493929190612a69565b602060405180830381600087803b15801561172c57600080fd5b505af192505050801561175d57506040513d601f19601f8201168201806040525081019061175a9190612aca565b60015b6117e0573d806000811461178d576040519150601f19603f3d011682016040523d82523d6000602084013e611792565b606091505b506000815114156117d8576040517f08c379a00000000000000000000000000000000000000000000000000000000081526004016117cf90612934565b60405180910390fd5b805181602001fd5b63150b7a0260e01b7bffffffffffffffffffffffffffffffffffffffffffffffffffffffff1916817bffffffffffffffffffffffffffffffffffffffffffffffffffffffff191614915050611835565b600190505b949350505050565b600073ffffffffffffffffffffffffffffffffffffffff168273ffffffffffffffffffffffffffffffffffffffff1614156118ad576040517f08c379a00000000000000000000000000000000000000000000000000000000081526004016118a490612b43565b60405180910390fd5b6118b681610f27565b156118f6576040517f08c379a00000000000000000000000000000000000000000000000000000000081526004016118ed90612baf565b60405180910390fd5b611902600083836116a1565b6001600360008473ffffffffffffffffffffffffffffffffffffffff1673ffffffffffffffffffffffffffffffffffffffff1681526020019081526020016000206000828254611952919061286c565b92505081905550816002600083815260200190815260200160002060006101000a81548173ffffffffffffffffffffffffffffffffffffffff021916908373ffffffffffffffffffffffffffffffffffffffff160217905550808273ffffffffffffffffffffffffffffffffffffffff16600073ffffffffffffffffffffffffffffffffffffffff167fddf252ad1be2c89b69c2b068fc378daa952ba7f163c4a11628f55a4df523b3ef60405160405180910390a45050565b600080823b905060008111915050919050565b6000604051905090565b600080fd5b600080fd5b60007fffffffff0000000000000000000000000000000000000000000000000000000082169050919050565b611a6781611a32565b8114611a7257600080fd5b50565b600081359050611a8481611a5e565b92915050565b600060208284031215611aa057611a9f611a28565b5b6000611aae84828501611a75565b91505092915050565b60008115159050919050565b611acc81611ab7565b82525050565b6000602082019050611ae76000830184611ac3565b92915050565b600081519050919050565b600082825260208201905092915050565b60005b83811015611b27578082015181840152602081019050611b0c565b83811115611b36576000848401525b50505050565b6000601f19601f8301169050919050565b6000611b5882611aed565b611b628185611af8565b9350611b72818560208601611b09565b611b7b81611b3c565b840191505092915050565b60006020820190508181036000830152611ba08184611b4d565b905092915050565b6000819050919050565b611bbb81611ba8565b8114611bc657600080fd5b50565b600081359050611bd881611bb2565b92915050565b600060208284031215611bf457611bf3611a28565b5b6000611c0284828501611bc9565b91505092915050565b600073ffffffffffffffffffffffffffffffffffffffff82169050919050565b6000611c3682611c0b565b9050919050565b611c4681611c2b565b82525050565b6000602082019050611c616000830184611c3d565b92915050565b611c7081611c2b565b8114611c7b57600080fd5b50565b600081359050611c8d81611c67565b92915050565b60008060408385031215611caa57611ca9611a28565b5b6000611cb885828601611c7e565b9250506020611cc985828601611bc9565b9150509250929050565b600080600060608486031215611cec57611ceb611a28565b5b6000611cfa86828701611c7e565b9350506020611d0b86828701611c7e565b9250506040611d1c86828701611bc9565b9150509250925092565b600060208284031215611d3c57611d3b611a28565b5b6000611d4a84828501611c7e565b91505092915050565b611d5c81611ba8565b82525050565b6000602082019050611d776000830184611d53565b92915050565b611d8681611ab7565b8114611d9157600080fd5b50565b600081359050611da381611d7d565b92915050565b60008060408385031215611dc057611dbf611a28565b5b6000611dce85828601611c7e565b9250506020611ddf85828601611d94565b9150509250929050565b600080fd5b600080fd5b7f4e487b7100000000000000000000000000000000000000000000000000000000600052604160045260246000fd5b611e2b82611b3c565b810181811067ffffffffffffffff82111715611e4a57611e49611df3565b5b80604052505050565b6000611e5d611a1e565b9050611e698282611e22565b919050565b600067ffffffffffffffff821115611e8957611e88611df3565b5b611e9282611b3c565b9050602081019050919050565b82818337600083830152505050565b6000611ec1611ebc84611e6e565b611e53565b905082815260208101848484011115611edd57611edc611dee565b5b611ee8848285611e9f565b509392505050565b600082601f830112611f0557611f04611de9565b5b8135611f15848260208601611eae565b91505092915050565b60008060008060808587031215611f3857611f37611a28565b5b6000611f4687828801611c7e565b9450506020611f5787828801611c7e565b9350506040611f6887828801611bc9565b925050606085013567ffffffffffffffff811115611f8957611f88611a2d565b5b611f9587828801611ef0565b91505092959194509250565b60008060408385031215611fb857611fb7611a28565b5b6000611fc685828601611c7e565b9250506020611fd785828601611c7e565b9150509250929050565b7f4e487b7100000000000000000000000000000000000000000000000000000000600052602260045260246000fd5b6000600282049050600182168061202857607f821691505b6020821081141561203c5761203b611fe1565b5b50919050565b7f4552433732313a20617070726f76656420717565727920666f72206e6f6e657860008201527f697374656e7420746f6b656e0000000000000000000000000000000000000000602082015250565b600061209e602c83611af8565b91506120a982612042565b604082019050919050565b600060208201905081810360008301526120cd81612091565b9050919050565b7f4552433732313a20617070726f76616c20746f2063757272656e74206f776e6560008201527f7200000000000000000000000000000000000000000000000000000000000000602082015250565b6000612130602183611af8565b915061213b826120d4565b604082019050919050565b6000602082019050818103600083015261215f81612123565b9050919050565b7f4552433732313a20617070726f76652063616c6c6572206973206e6f74206f7760008201527f6e6572206e6f7220617070726f76656420666f7220616c6c0000000000000000602082015250565b60006121c2603883611af8565b91506121cd82612166565b604082019050919050565b600060208201905081810360008301526121f1816121b5565b9050919050565b7f4e487b7100000000000000000000000000000000000000000000000000000000600052601160045260246000fd5b600061223282611ba8565b91507fffffffffffffffffffffffffffffffffffffffffffffffffffffffffffffffff821415612265576122646121f8565b5b600182019050919050565b7f4552433732313a207472616e736665722063616c6c6572206973206e6f74206f60008201527f776e6572206e6f7220617070726f766564000000000000000000000000000000602082015250565b60006122cc603183611af8565b91506122d782612270565b604082019050919050565b600060208201905081810360008301526122fb816122bf565b9050919050565b7f4552433732313a206f776e657220717565727920666f72206e6f6e657869737460008201527f656e7420746f6b656e0000000000000000000000000000000000000000000000602082015250565b600061235e602983611af8565b915061236982612302565b604082019050919050565b6000602082019050818103600083015261238d81612351565b9050919050565b7f4552433732313a2062616c616e636520717565727920666f7220746865207a6560008201527f726f206164647265737300000000000000000000000000000000000000000000602082015250565b60006123f0602a83611af8565b91506123fb82612394565b604082019050919050565b6000602082019050818103600083015261241f816123e3565b9050919050565b7f4f776e61626c653a2063616c6c6572206973206e6f7420746865206f776e6572600082015250565b600061245c602083611af8565b915061246782612426565b602082019050919050565b6000602082019050818103600083015261248b8161244f565b9050919050565b7f4552433732313a20617070726f766520746f2063616c6c657200000000000000600082015250565b60006124c8601983611af8565b91506124d382612492565b602082019050919050565b600060208201905081810360008301526124f7816124bb565b9050919050565b7f4552433732314d657461646174613a2055524920717565727920666f72206e6f60008201527f6e6578697374656e7420746f6b656e0000000000000000000000000000000000602082015250565b600061255a602f83611af8565b9150612565826124fe565b604082019050919050565b600060208201905081810360008301526125898161254d565b9050919050565b600081905092915050565b60006125a682611aed565b6125b08185612590565b93506125c0818560208601611b09565b80840191505092915050565b60006125d8828561259b565b91506125e4828461259b565b91508190509392505050565b7f4f776e61626c653a206e6577206f776e657220697320746865207a65726f206160008201527f6464726573730000000000000000000000000000000000000000000000000000602082015250565b600061264c602683611af8565b9150612657826125f0565b604082019050919050565b6000602082019050818103600083015261267b8161263f565b9050919050565b7f4552433732313a206f70657261746f7220717565727920666f72206e6f6e657860008201527f697374656e7420746f6b656e0000000000000000000000000000000000000000602082015250565b60006126de602c83611af8565b91506126e982612682565b604082019050919050565b6000602082019050818103600083015261270d816126d1565b9050919050565b7f4552433732313a207472616e73666572206f6620746f6b656e2074686174206960008201527f73206e6f74206f776e0000000000000000000000000000000000000000000000602082015250565b6000612770602983611af8565b915061277b82612714565b604082019050919050565b6000602082019050818103600083015261279f81612763565b9050919050565b7f4552433732313a207472616e7366657220746f20746865207a65726f2061646460008201527f7265737300000000000000000000000000000000000000000000000000000000602082015250565b6000612802602483611af8565b915061280d826127a6565b604082019050919050565b60006020820190508181036000830152612831816127f5565b9050919050565b600061284382611ba8565b915061284e83611ba8565b925082821015612861576128606121f8565b5b828203905092915050565b600061287782611ba8565b915061288283611ba8565b9250827fffffffffffffffffffffffffffffffffffffffffffffffffffffffffffffffff038211156128b7576128b66121f8565b5b828201905092915050565b7f4552433732313a207472616e7366657220746f206e6f6e20455243373231526560008201527f63656976657220696d706c656d656e7465720000000000000000000000000000602082015250565b600061291e603283611af8565b9150612929826128c2565b604082019050919050565b6000602082019050818103600083015261294d81612911565b9050919050565b7f4e487b7100000000000000000000000000000000000000000000000000000000600052601260045260246000fd5b600061298e82611ba8565b915061299983611ba8565b9250826129a9576129a8612954565b5b828204905092915050565b60006129bf82611ba8565b91506129ca83611ba8565b9250826129da576129d9612954565b5b828206905092915050565b7f4e487b7100000000000000000000000000000000000000000000000000000000600052603260045260246000fd5b600081519050919050565b600082825260208201905092915050565b6000612a3b82612a14565b612a458185612a1f565b9350612a55818560208601611b09565b612a5e81611b3c565b840191505092915050565b6000608082019050612a7e6000830187611c3d565b612a8b6020830186611c3d565b612a986040830185611d53565b8181036060830152612aaa8184612a30565b905095945050505050565b600081519050612ac481611a5e565b92915050565b600060208284031215612ae057612adf611a28565b5b6000612aee84828501612ab5565b91505092915050565b7f4552433732313a206d696e7420746f20746865207a65726f2061646472657373600082015250565b6000612b2d602083611af8565b9150612b3882612af7565b602082019050919050565b60006020820190508181036000830152612b5c81612b20565b9050919050565b7f4552433732313a20746f6b656e20616c7265616479206d696e74656400000000600082015250565b6000612b99601c83611af8565b9150612ba482612b63565b602082019050919050565b60006020820190508181036000830152612bc881612b8c565b905091905056fea26469706673582212202d626acfee8f9b46add80f8a153144502198d5a2780d66753a7cda7d15ddda9164736f6c63430008090033",
  "immutableReferences": {},
  "source": "pragma solidity ^0.8.0;\n\nimport \"@openzeppelin/contracts/token/ERC721/ERC721.sol\";\nimport \"@openzeppelin/contracts/access/Ownable.sol\";\nimport { Base64 } from \"./Base64.sol\";\n\ncontract Sploot is ERC721, Ownable {\n  // Max and total supply\n  uint public maxSupply = 100;\n  uint internal totalSupply = 0;\n\n\n  struct Splooter {\n    string name;\n    uint speed;\n    uint stamina;\n    uint strength;\n    uint aggression;\n    uint creativity;\n    uint luck;\n    uint focus;\n    uint influence;\n    uint agility;\n    string phobia;\n    string[] vices;\n    string role;\n    string personality;\n    string class;\n    string affinity;\n  }\n\n  mapping(uint => Splooter) tokenToSplooter;\n\n  // Owner of the Colors contract (msg.sender)\n  address contractOwner;\n\n  constructor() ERC721(\"SPLOOT\", \"SPLOOT\") {\n    contractOwner = msg.sender;\n  }\n\n  function mint() public {\n    _safeMint(msg.sender, totalSupply);\n    totalSupply++;\n  }\n\n  /* function setSplooter(\n    uint tokenId,\n    string memory name,\n    uint speed,\n    uint stamina,\n    uint strength,\n    uint aggression,\n    uint creativity,\n    uint luck,\n    uint focus,\n    uint influence,\n    uint agility,\n    string memory phobia,\n    string[] memory vices,\n    string memory role,\n    string memory personality,\n    string memory class,\n    string memory affinity\n    ) public onlyOwner() {\n      tokenToSplooter[tokenId] = Splooter(\n        name,\n        speed,\n        stamina,\n        strength,\n        aggression,\n        creativity,\n        luck,\n        focus,\n        influence,\n        agility,\n        phobia,\n        vices,\n        role,\n        personality,\n        class,\n        affinity\n        );\n  } */\n\n  function getIdOwner(uint _tokenId) public view returns(address) {\n    return ownerOf(_tokenId);\n  }\n\n  // Utils\n  function getOwnerCount(address account) public view returns (uint) {\n    return balanceOf(account);\n  }\n\n  function getTotalSupply() public view returns (uint) {\n    return totalSupply;\n  }\n}\n",
  "sourcePath": "/Users/millerkinlin/Projects/sploot-nft/contracts/Sploot.sol",
  "compiler": {
    "name": "solc",
    "version": "0.8.9+commit.e5eed63a.Emscripten.clang"
  },
  "schemaVersion": "3.4.3",
  "updatedAt": "2021-10-28T03:32:30.533Z",
  "networkType": "ethereum",
  "devdoc": {
    "kind": "dev",
    "methods": {
      "approve(address,uint256)": {
        "details": "See {IERC721-approve}."
      },
      "balanceOf(address)": {
        "details": "See {IERC721-balanceOf}."
      },
      "getApproved(uint256)": {
        "details": "See {IERC721-getApproved}."
      },
      "isApprovedForAll(address,address)": {
        "details": "See {IERC721-isApprovedForAll}."
      },
      "name()": {
        "details": "See {IERC721Metadata-name}."
      },
      "owner()": {
        "details": "Returns the address of the current owner."
      },
      "ownerOf(uint256)": {
        "details": "See {IERC721-ownerOf}."
      },
      "renounceOwnership()": {
        "details": "Leaves the contract without owner. It will not be possible to call `onlyOwner` functions anymore. Can only be called by the current owner. NOTE: Renouncing ownership will leave the contract without an owner, thereby removing any functionality that is only available to the owner."
      },
      "safeTransferFrom(address,address,uint256)": {
        "details": "See {IERC721-safeTransferFrom}."
      },
      "safeTransferFrom(address,address,uint256,bytes)": {
        "details": "See {IERC721-safeTransferFrom}."
      },
      "setApprovalForAll(address,bool)": {
        "details": "See {IERC721-setApprovalForAll}."
      },
      "supportsInterface(bytes4)": {
        "details": "See {IERC165-supportsInterface}."
      },
      "symbol()": {
        "details": "See {IERC721Metadata-symbol}."
      },
      "tokenURI(uint256)": {
        "details": "See {IERC721Metadata-tokenURI}."
      },
      "transferFrom(address,address,uint256)": {
        "details": "See {IERC721-transferFrom}."
      },
      "transferOwnership(address)": {
        "details": "Transfers ownership of the contract to a new account (`newOwner`). Can only be called by the current owner."
      }
    },
    "version": 1
  },
  "userdoc": {
    "kind": "user",
    "methods": {},
    "version": 1
  }
}