{
  "contractName": "Sploot",
  "abi": [
    {
      "inputs": [],
      "stateMutability": "nonpayable",
      "type": "constructor"
    },
    {
      "anonymous": false,
      "inputs": [
        {
          "indexed": true,
          "internalType": "address",
          "name": "owner",
          "type": "address"
        },
        {
          "indexed": true,
          "internalType": "address",
          "name": "approved",
          "type": "address"
        },
        {
          "indexed": true,
          "internalType": "uint256",
          "name": "tokenId",
          "type": "uint256"
        }
      ],
      "name": "Approval",
      "type": "event"
    },
    {
      "anonymous": false,
      "inputs": [
        {
          "indexed": true,
          "internalType": "address",
          "name": "owner",
          "type": "address"
        },
        {
          "indexed": true,
          "internalType": "address",
          "name": "operator",
          "type": "address"
        },
        {
          "indexed": false,
          "internalType": "bool",
          "name": "approved",
          "type": "bool"
        }
      ],
      "name": "ApprovalForAll",
      "type": "event"
    },
    {
      "anonymous": false,
      "inputs": [
        {
          "indexed": true,
          "internalType": "address",
          "name": "previousOwner",
          "type": "address"
        },
        {
          "indexed": true,
          "internalType": "address",
          "name": "newOwner",
          "type": "address"
        }
      ],
      "name": "OwnershipTransferred",
      "type": "event"
    },
    {
      "anonymous": false,
      "inputs": [
        {
          "indexed": true,
          "internalType": "address",
          "name": "from",
          "type": "address"
        },
        {
          "indexed": true,
          "internalType": "address",
          "name": "to",
          "type": "address"
        },
        {
          "indexed": true,
          "internalType": "uint256",
          "name": "tokenId",
          "type": "uint256"
        }
      ],
      "name": "Transfer",
      "type": "event"
    },
    {
      "inputs": [
        {
          "internalType": "address",
          "name": "to",
          "type": "address"
        },
        {
          "internalType": "uint256",
          "name": "tokenId",
          "type": "uint256"
        }
      ],
      "name": "approve",
      "outputs": [],
      "stateMutability": "nonpayable",
      "type": "function"
    },
    {
      "inputs": [
        {
          "internalType": "address",
          "name": "owner",
          "type": "address"
        }
      ],
      "name": "balanceOf",
      "outputs": [
        {
          "internalType": "uint256",
          "name": "",
          "type": "uint256"
        }
      ],
      "stateMutability": "view",
      "type": "function",
      "constant": true
    },
    {
      "inputs": [
        {
          "internalType": "uint256",
          "name": "tokenId",
          "type": "uint256"
        }
      ],
      "name": "getApproved",
      "outputs": [
        {
          "internalType": "address",
          "name": "",
          "type": "address"
        }
      ],
      "stateMutability": "view",
      "type": "function",
      "constant": true
    },
    {
      "inputs": [
        {
          "internalType": "address",
          "name": "owner",
          "type": "address"
        },
        {
          "internalType": "address",
          "name": "operator",
          "type": "address"
        }
      ],
      "name": "isApprovedForAll",
      "outputs": [
        {
          "internalType": "bool",
          "name": "",
          "type": "bool"
        }
      ],
      "stateMutability": "view",
      "type": "function",
      "constant": true
    },
    {
      "inputs": [],
      "name": "maxSupply",
      "outputs": [
        {
          "internalType": "uint256",
          "name": "",
          "type": "uint256"
        }
      ],
      "stateMutability": "view",
      "type": "function",
      "constant": true
    },
    {
      "inputs": [],
      "name": "name",
      "outputs": [
        {
          "internalType": "string",
          "name": "",
          "type": "string"
        }
      ],
      "stateMutability": "view",
      "type": "function",
      "constant": true
    },
    {
      "inputs": [],
      "name": "owner",
      "outputs": [
        {
          "internalType": "address",
          "name": "",
          "type": "address"
        }
      ],
      "stateMutability": "view",
      "type": "function",
      "constant": true
    },
    {
      "inputs": [
        {
          "internalType": "uint256",
          "name": "tokenId",
          "type": "uint256"
        }
      ],
      "name": "ownerOf",
      "outputs": [
        {
          "internalType": "address",
          "name": "",
          "type": "address"
        }
      ],
      "stateMutability": "view",
      "type": "function",
      "constant": true
    },
    {
      "inputs": [],
      "name": "renounceOwnership",
      "outputs": [],
      "stateMutability": "nonpayable",
      "type": "function"
    },
    {
      "inputs": [
        {
          "internalType": "address",
          "name": "from",
          "type": "address"
        },
        {
          "internalType": "address",
          "name": "to",
          "type": "address"
        },
        {
          "internalType": "uint256",
          "name": "tokenId",
          "type": "uint256"
        }
      ],
      "name": "safeTransferFrom",
      "outputs": [],
      "stateMutability": "nonpayable",
      "type": "function"
    },
    {
      "inputs": [
        {
          "internalType": "address",
          "name": "from",
          "type": "address"
        },
        {
          "internalType": "address",
          "name": "to",
          "type": "address"
        },
        {
          "internalType": "uint256",
          "name": "tokenId",
          "type": "uint256"
        },
        {
          "internalType": "bytes",
          "name": "_data",
          "type": "bytes"
        }
      ],
      "name": "safeTransferFrom",
      "outputs": [],
      "stateMutability": "nonpayable",
      "type": "function"
    },
    {
      "inputs": [
        {
          "internalType": "address",
          "name": "operator",
          "type": "address"
        },
        {
          "internalType": "bool",
          "name": "approved",
          "type": "bool"
        }
      ],
      "name": "setApprovalForAll",
      "outputs": [],
      "stateMutability": "nonpayable",
      "type": "function"
    },
    {
      "inputs": [
        {
          "internalType": "bytes4",
          "name": "interfaceId",
          "type": "bytes4"
        }
      ],
      "name": "supportsInterface",
      "outputs": [
        {
          "internalType": "bool",
          "name": "",
          "type": "bool"
        }
      ],
      "stateMutability": "view",
      "type": "function",
      "constant": true
    },
    {
      "inputs": [],
      "name": "symbol",
      "outputs": [
        {
          "internalType": "string",
          "name": "",
          "type": "string"
        }
      ],
      "stateMutability": "view",
      "type": "function",
      "constant": true
    },
    {
      "inputs": [
        {
          "internalType": "uint256",
          "name": "tokenId",
          "type": "uint256"
        }
      ],
      "name": "tokenURI",
      "outputs": [
        {
          "internalType": "string",
          "name": "",
          "type": "string"
        }
      ],
      "stateMutability": "view",
      "type": "function",
      "constant": true
    },
    {
      "inputs": [
        {
          "internalType": "address",
          "name": "from",
          "type": "address"
        },
        {
          "internalType": "address",
          "name": "to",
          "type": "address"
        },
        {
          "internalType": "uint256",
          "name": "tokenId",
          "type": "uint256"
        }
      ],
      "name": "transferFrom",
      "outputs": [],
      "stateMutability": "nonpayable",
      "type": "function"
    },
    {
      "inputs": [
        {
          "internalType": "address",
          "name": "newOwner",
          "type": "address"
        }
      ],
      "name": "transferOwnership",
      "outputs": [],
      "stateMutability": "nonpayable",
      "type": "function"
    },
    {
      "inputs": [],
      "name": "mint",
      "outputs": [],
      "stateMutability": "nonpayable",
      "type": "function"
    },
    {
      "inputs": [
        {
          "internalType": "address",
          "name": "account",
          "type": "address"
        }
      ],
      "name": "getOwnerCount",
      "outputs": [
        {
          "internalType": "uint256",
          "name": "",
          "type": "uint256"
        }
      ],
      "stateMutability": "view",
      "type": "function",
      "constant": true
    },
    {
      "inputs": [],
      "name": "getTotalSupply",
      "outputs": [
        {
          "internalType": "uint256",
          "name": "",
          "type": "uint256"
        }
      ],
      "stateMutability": "view",
      "type": "function",
      "constant": true
    }
  ],
  "bytecode": "0x6080604052606460075560006008553480156200001b57600080fd5b506040518060400160405280600681526020017f53504c4f4f5400000000000000000000000000000000000000000000000000008152506040518060400160405280600681526020017f53504c4f4f5400000000000000000000000000000000000000000000000000008152508160009080519060200190620000a0929190620001f1565b508060019080519060200190620000b9929190620001f1565b505050620000dc620000d06200012360201b60201c565b6200012b60201b60201c565b33600960006101000a81548173ffffffffffffffffffffffffffffffffffffffff021916908373ffffffffffffffffffffffffffffffffffffffff16021790555062000306565b600033905090565b6000600660009054906101000a900473ffffffffffffffffffffffffffffffffffffffff16905081600660006101000a81548173ffffffffffffffffffffffffffffffffffffffff021916908373ffffffffffffffffffffffffffffffffffffffff1602179055508173ffffffffffffffffffffffffffffffffffffffff168173ffffffffffffffffffffffffffffffffffffffff167f8be0079c531659141344cd1fd0a4f28419497f9722a3daafe3b4186f6b6457e060405160405180910390a35050565b828054620001ff90620002d0565b90600052602060002090601f0160209004810192826200022357600085556200026f565b82601f106200023e57805160ff19168380011785556200026f565b828001600101855582156200026f579182015b828111156200026e57825182559160200191906001019062000251565b5b5090506200027e919062000282565b5090565b5b808211156200029d57600081600090555060010162000283565b5090565b7f4e487b7100000000000000000000000000000000000000000000000000000000600052602260045260246000fd5b60006002820490506001821680620002e957607f821691505b602082108114156200030057620002ff620002a1565b5b50919050565b612bb880620003166000396000f3fe608060405234801561001057600080fd5b506004361061012c5760003560e01c80638da5cb5b116100ad578063c4e41b2211610071578063c4e41b221461031b578063c87b56dd14610339578063d5abeb0114610369578063e985e9c514610387578063f2fde38b146103b75761012c565b80638da5cb5b14610277578063913087111461029557806395d89b41146102c5578063a22cb465146102e3578063b88d4fde146102ff5761012c565b806323b872dd116100f457806323b872dd146101d557806342842e0e146101f15780636352211e1461020d57806370a082311461023d578063715018a61461026d5761012c565b806301ffc9a71461013157806306fdde0314610161578063081812fc1461017f578063095ea7b3146101af5780631249c58b146101cb575b600080fd5b61014b60048036038101906101469190611a3d565b6103d3565b6040516101589190611a85565b60405180910390f35b6101696104b5565b6040516101769190611b39565b60405180910390f35b61019960048036038101906101949190611b91565b610547565b6040516101a69190611bff565b60405180910390f35b6101c960048036038101906101c49190611c46565b6105cc565b005b6101d36106e4565b005b6101ef60048036038101906101ea9190611c86565b61070a565b005b61020b60048036038101906102069190611c86565b61076a565b005b61022760048036038101906102229190611b91565b61078a565b6040516102349190611bff565b60405180910390f35b61025760048036038101906102529190611cd9565b61083c565b6040516102649190611d15565b60405180910390f35b6102756108f4565b005b61027f61097c565b60405161028c9190611bff565b60405180910390f35b6102af60048036038101906102aa9190611cd9565b6109a6565b6040516102bc9190611d15565b60405180910390f35b6102cd6109b8565b6040516102da9190611b39565b60405180910390f35b6102fd60048036038101906102f89190611d5c565b610a4a565b005b61031960048036038101906103149190611ed1565b610bcb565b005b610323610c2d565b6040516103309190611d15565b60405180910390f35b610353600480360381019061034e9190611b91565b610c37565b6040516103609190611b39565b60405180910390f35b610371610cde565b60405161037e9190611d15565b60405180910390f35b6103a1600480360381019061039c9190611f54565b610ce4565b6040516103ae9190611a85565b60405180910390f35b6103d160048036038101906103cc9190611cd9565b610d78565b005b60007f80ac58cd000000000000000000000000000000000000000000000000000000007bffffffffffffffffffffffffffffffffffffffffffffffffffffffff1916827bffffffffffffffffffffffffffffffffffffffffffffffffffffffff1916148061049e57507f5b5e139f000000000000000000000000000000000000000000000000000000007bffffffffffffffffffffffffffffffffffffffffffffffffffffffff1916827bffffffffffffffffffffffffffffffffffffffffffffffffffffffff1916145b806104ae57506104ad82610e70565b5b9050919050565b6060600080546104c490611fc3565b80601f01602080910402602001604051908101604052809291908181526020018280546104f090611fc3565b801561053d5780601f106105125761010080835404028352916020019161053d565b820191906000526020600020905b81548152906001019060200180831161052057829003601f168201915b5050505050905090565b600061055282610eda565b610591576040517f08c379a000000000000000000000000000000000000000000000000000000000815260040161058890612067565b60405180910390fd5b6004600083815260200190815260200160002060009054906101000a900473ffffffffffffffffffffffffffffffffffffffff169050919050565b60006105d78261078a565b90508073ffffffffffffffffffffffffffffffffffffffff168373ffffffffffffffffffffffffffffffffffffffff161415610648576040517f08c379a000000000000000000000000000000000000000000000000000000000815260040161063f906120f9565b60405180910390fd5b8073ffffffffffffffffffffffffffffffffffffffff16610667610f46565b73ffffffffffffffffffffffffffffffffffffffff161480610696575061069581610690610f46565b610ce4565b5b6106d5576040517f08c379a00000000000000000000000000000000000000000000000000000000081526004016106cc9061218b565b60405180910390fd5b6106df8383610f4e565b505050565b6106f033600854611007565b60086000815480929190610703906121da565b9190505550565b61071b610715610f46565b82611025565b61075a576040517f08c379a000000000000000000000000000000000000000000000000000000000815260040161075190612295565b60405180910390fd5b610765838383611103565b505050565b61078583838360405180602001604052806000815250610bcb565b505050565b6000806002600084815260200190815260200160002060009054906101000a900473ffffffffffffffffffffffffffffffffffffffff169050600073ffffffffffffffffffffffffffffffffffffffff168173ffffffffffffffffffffffffffffffffffffffff161415610833576040517f08c379a000000000000000000000000000000000000000000000000000000000815260040161082a90612327565b60405180910390fd5b80915050919050565b60008073ffffffffffffffffffffffffffffffffffffffff168273ffffffffffffffffffffffffffffffffffffffff1614156108ad576040517f08c379a00000000000000000000000000000000000000000000000000000000081526004016108a4906123b9565b60405180910390fd5b600360008373ffffffffffffffffffffffffffffffffffffffff1673ffffffffffffffffffffffffffffffffffffffff168152602001908152602001600020549050919050565b6108fc610f46565b73ffffffffffffffffffffffffffffffffffffffff1661091a61097c565b73ffffffffffffffffffffffffffffffffffffffff1614610970576040517f08c379a000000000000000000000000000000000000000000000000000000000815260040161096790612425565b60405180910390fd5b61097a600061135f565b565b6000600660009054906101000a900473ffffffffffffffffffffffffffffffffffffffff16905090565b60006109b18261083c565b9050919050565b6060600180546109c790611fc3565b80601f01602080910402602001604051908101604052809291908181526020018280546109f390611fc3565b8015610a405780601f10610a1557610100808354040283529160200191610a40565b820191906000526020600020905b815481529060010190602001808311610a2357829003601f168201915b5050505050905090565b610a52610f46565b73ffffffffffffffffffffffffffffffffffffffff168273ffffffffffffffffffffffffffffffffffffffff161415610ac0576040517f08c379a0000000000000000000000000000000000000000000000000000000008152600401610ab790612491565b60405180910390fd5b8060056000610acd610f46565b73ffffffffffffffffffffffffffffffffffffffff1673ffffffffffffffffffffffffffffffffffffffff16815260200190815260200160002060008473ffffffffffffffffffffffffffffffffffffffff1673ffffffffffffffffffffffffffffffffffffffff16815260200190815260200160002060006101000a81548160ff0219169083151502179055508173ffffffffffffffffffffffffffffffffffffffff16610b7a610f46565b73ffffffffffffffffffffffffffffffffffffffff167f17307eab39ab6107e8899845ad3d59bd9653f200f220920489ca2b5937696c3183604051610bbf9190611a85565b60405180910390a35050565b610bdc610bd6610f46565b83611025565b610c1b576040517f08c379a0000000000000000000000000000000000000000000000000000000008152600401610c1290612295565b60405180910390fd5b610c2784848484611425565b50505050565b6000600854905090565b6060610c4282610eda565b610c81576040517f08c379a0000000000000000000000000000000000000000000000000000000008152600401610c7890612523565b60405180910390fd5b6000610c8b611481565b90506000815111610cab5760405180602001604052806000815250610cd6565b80610cb584611498565b604051602001610cc692919061257f565b6040516020818303038152906040525b915050919050565b60075481565b6000600560008473ffffffffffffffffffffffffffffffffffffffff1673ffffffffffffffffffffffffffffffffffffffff16815260200190815260200160002060008373ffffffffffffffffffffffffffffffffffffffff1673ffffffffffffffffffffffffffffffffffffffff16815260200190815260200160002060009054906101000a900460ff16905092915050565b610d80610f46565b73ffffffffffffffffffffffffffffffffffffffff16610d9e61097c565b73ffffffffffffffffffffffffffffffffffffffff1614610df4576040517f08c379a0000000000000000000000000000000000000000000000000000000008152600401610deb90612425565b60405180910390fd5b600073ffffffffffffffffffffffffffffffffffffffff168173ffffffffffffffffffffffffffffffffffffffff161415610e64576040517f08c379a0000000000000000000000000000000000000000000000000000000008152600401610e5b90612615565b60405180910390fd5b610e6d8161135f565b50565b60007f01ffc9a7000000000000000000000000000000000000000000000000000000007bffffffffffffffffffffffffffffffffffffffffffffffffffffffff1916827bffffffffffffffffffffffffffffffffffffffffffffffffffffffff1916149050919050565b60008073ffffffffffffffffffffffffffffffffffffffff166002600084815260200190815260200160002060009054906101000a900473ffffffffffffffffffffffffffffffffffffffff1673ffffffffffffffffffffffffffffffffffffffff1614159050919050565b600033905090565b816004600083815260200190815260200160002060006101000a81548173ffffffffffffffffffffffffffffffffffffffff021916908373ffffffffffffffffffffffffffffffffffffffff160217905550808273ffffffffffffffffffffffffffffffffffffffff16610fc18361078a565b73ffffffffffffffffffffffffffffffffffffffff167f8c5be1e5ebec7d5bd14f71427d1e84f3dd0314c0f7b2291e5b200ac8c7c3b92560405160405180910390a45050565b6110218282604051806020016040528060008152506115f9565b5050565b600061103082610eda565b61106f576040517f08c379a0000000000000000000000000000000000000000000000000000000008152600401611066906126a7565b60405180910390fd5b600061107a8361078a565b90508073ffffffffffffffffffffffffffffffffffffffff168473ffffffffffffffffffffffffffffffffffffffff1614806110e957508373ffffffffffffffffffffffffffffffffffffffff166110d184610547565b73ffffffffffffffffffffffffffffffffffffffff16145b806110fa57506110f98185610ce4565b5b91505092915050565b8273ffffffffffffffffffffffffffffffffffffffff166111238261078a565b73ffffffffffffffffffffffffffffffffffffffff1614611179576040517f08c379a000000000000000000000000000000000000000000000000000000000815260040161117090612739565b60405180910390fd5b600073ffffffffffffffffffffffffffffffffffffffff168273ffffffffffffffffffffffffffffffffffffffff1614156111e9576040517f08c379a00000000000000000000000000000000000000000000000000000000081526004016111e0906127cb565b60405180910390fd5b6111f4838383611654565b6111ff600082610f4e565b6001600360008573ffffffffffffffffffffffffffffffffffffffff1673ffffffffffffffffffffffffffffffffffffffff168152602001908152602001600020600082825461124f91906127eb565b925050819055506001600360008473ffffffffffffffffffffffffffffffffffffffff1673ffffffffffffffffffffffffffffffffffffffff16815260200190815260200160002060008282546112a6919061281f565b92505081905550816002600083815260200190815260200160002060006101000a81548173ffffffffffffffffffffffffffffffffffffffff021916908373ffffffffffffffffffffffffffffffffffffffff160217905550808273ffffffffffffffffffffffffffffffffffffffff168473ffffffffffffffffffffffffffffffffffffffff167fddf252ad1be2c89b69c2b068fc378daa952ba7f163c4a11628f55a4df523b3ef60405160405180910390a4505050565b6000600660009054906101000a900473ffffffffffffffffffffffffffffffffffffffff16905081600660006101000a81548173ffffffffffffffffffffffffffffffffffffffff021916908373ffffffffffffffffffffffffffffffffffffffff1602179055508173ffffffffffffffffffffffffffffffffffffffff168173ffffffffffffffffffffffffffffffffffffffff167f8be0079c531659141344cd1fd0a4f28419497f9722a3daafe3b4186f6b6457e060405160405180910390a35050565b611430848484611103565b61143c84848484611659565b61147b576040517f08c379a0000000000000000000000000000000000000000000000000000000008152600401611472906128e7565b60405180910390fd5b50505050565b606060405180602001604052806000815250905090565b606060008214156114e0576040518060400160405280600181526020017f300000000000000000000000000000000000000000000000000000000000000081525090506115f4565b600082905060005b600082146115125780806114fb906121da565b915050600a8261150b9190612936565b91506114e8565b60008167ffffffffffffffff81111561152e5761152d611da6565b5b6040519080825280601f01601f1916602001820160405280156115605781602001600182028036833780820191505090505b5090505b600085146115ed5760018261157991906127eb565b9150600a856115889190612967565b6030611594919061281f565b60f81b8183815181106115aa576115a9612998565b5b60200101907effffffffffffffffffffffffffffffffffffffffffffffffffffffffffffff1916908160001a905350600a856115e69190612936565b9450611564565b8093505050505b919050565b61160383836117f0565b6116106000848484611659565b61164f576040517f08c379a0000000000000000000000000000000000000000000000000000000008152600401611646906128e7565b60405180910390fd5b505050565b505050565b600061167a8473ffffffffffffffffffffffffffffffffffffffff166119be565b156117e3578373ffffffffffffffffffffffffffffffffffffffff1663150b7a026116a3610f46565b8786866040518563ffffffff1660e01b81526004016116c59493929190612a1c565b602060405180830381600087803b1580156116df57600080fd5b505af192505050801561171057506040513d601f19601f8201168201806040525081019061170d9190612a7d565b60015b611793573d8060008114611740576040519150601f19603f3d011682016040523d82523d6000602084013e611745565b606091505b5060008151141561178b576040517f08c379a0000000000000000000000000000000000000000000000000000000008152600401611782906128e7565b60405180910390fd5b805181602001fd5b63150b7a0260e01b7bffffffffffffffffffffffffffffffffffffffffffffffffffffffff1916817bffffffffffffffffffffffffffffffffffffffffffffffffffffffff1916149150506117e8565b600190505b949350505050565b600073ffffffffffffffffffffffffffffffffffffffff168273ffffffffffffffffffffffffffffffffffffffff161415611860576040517f08c379a000000000000000000000000000000000000000000000000000000000815260040161185790612af6565b60405180910390fd5b61186981610eda565b156118a9576040517f08c379a00000000000000000000000000000000000000000000000000000000081526004016118a090612b62565b60405180910390fd5b6118b560008383611654565b6001600360008473ffffffffffffffffffffffffffffffffffffffff1673ffffffffffffffffffffffffffffffffffffffff1681526020019081526020016000206000828254611905919061281f565b92505081905550816002600083815260200190815260200160002060006101000a81548173ffffffffffffffffffffffffffffffffffffffff021916908373ffffffffffffffffffffffffffffffffffffffff160217905550808273ffffffffffffffffffffffffffffffffffffffff16600073ffffffffffffffffffffffffffffffffffffffff167fddf252ad1be2c89b69c2b068fc378daa952ba7f163c4a11628f55a4df523b3ef60405160405180910390a45050565b600080823b905060008111915050919050565b6000604051905090565b600080fd5b600080fd5b60007fffffffff0000000000000000000000000000000000000000000000000000000082169050919050565b611a1a816119e5565b8114611a2557600080fd5b50565b600081359050611a3781611a11565b92915050565b600060208284031215611a5357611a526119db565b5b6000611a6184828501611a28565b91505092915050565b60008115159050919050565b611a7f81611a6a565b82525050565b6000602082019050611a9a6000830184611a76565b92915050565b600081519050919050565b600082825260208201905092915050565b60005b83811015611ada578082015181840152602081019050611abf565b83811115611ae9576000848401525b50505050565b6000601f19601f8301169050919050565b6000611b0b82611aa0565b611b158185611aab565b9350611b25818560208601611abc565b611b2e81611aef565b840191505092915050565b60006020820190508181036000830152611b538184611b00565b905092915050565b6000819050919050565b611b6e81611b5b565b8114611b7957600080fd5b50565b600081359050611b8b81611b65565b92915050565b600060208284031215611ba757611ba66119db565b5b6000611bb584828501611b7c565b91505092915050565b600073ffffffffffffffffffffffffffffffffffffffff82169050919050565b6000611be982611bbe565b9050919050565b611bf981611bde565b82525050565b6000602082019050611c146000830184611bf0565b92915050565b611c2381611bde565b8114611c2e57600080fd5b50565b600081359050611c4081611c1a565b92915050565b60008060408385031215611c5d57611c5c6119db565b5b6000611c6b85828601611c31565b9250506020611c7c85828601611b7c565b9150509250929050565b600080600060608486031215611c9f57611c9e6119db565b5b6000611cad86828701611c31565b9350506020611cbe86828701611c31565b9250506040611ccf86828701611b7c565b9150509250925092565b600060208284031215611cef57611cee6119db565b5b6000611cfd84828501611c31565b91505092915050565b611d0f81611b5b565b82525050565b6000602082019050611d2a6000830184611d06565b92915050565b611d3981611a6a565b8114611d4457600080fd5b50565b600081359050611d5681611d30565b92915050565b60008060408385031215611d7357611d726119db565b5b6000611d8185828601611c31565b9250506020611d9285828601611d47565b9150509250929050565b600080fd5b600080fd5b7f4e487b7100000000000000000000000000000000000000000000000000000000600052604160045260246000fd5b611dde82611aef565b810181811067ffffffffffffffff82111715611dfd57611dfc611da6565b5b80604052505050565b6000611e106119d1565b9050611e1c8282611dd5565b919050565b600067ffffffffffffffff821115611e3c57611e3b611da6565b5b611e4582611aef565b9050602081019050919050565b82818337600083830152505050565b6000611e74611e6f84611e21565b611e06565b905082815260208101848484011115611e9057611e8f611da1565b5b611e9b848285611e52565b509392505050565b600082601f830112611eb857611eb7611d9c565b5b8135611ec8848260208601611e61565b91505092915050565b60008060008060808587031215611eeb57611eea6119db565b5b6000611ef987828801611c31565b9450506020611f0a87828801611c31565b9350506040611f1b87828801611b7c565b925050606085013567ffffffffffffffff811115611f3c57611f3b6119e0565b5b611f4887828801611ea3565b91505092959194509250565b60008060408385031215611f6b57611f6a6119db565b5b6000611f7985828601611c31565b9250506020611f8a85828601611c31565b9150509250929050565b7f4e487b7100000000000000000000000000000000000000000000000000000000600052602260045260246000fd5b60006002820490506001821680611fdb57607f821691505b60208210811415611fef57611fee611f94565b5b50919050565b7f4552433732313a20617070726f76656420717565727920666f72206e6f6e657860008201527f697374656e7420746f6b656e0000000000000000000000000000000000000000602082015250565b6000612051602c83611aab565b915061205c82611ff5565b604082019050919050565b6000602082019050818103600083015261208081612044565b9050919050565b7f4552433732313a20617070726f76616c20746f2063757272656e74206f776e6560008201527f7200000000000000000000000000000000000000000000000000000000000000602082015250565b60006120e3602183611aab565b91506120ee82612087565b604082019050919050565b60006020820190508181036000830152612112816120d6565b9050919050565b7f4552433732313a20617070726f76652063616c6c6572206973206e6f74206f7760008201527f6e6572206e6f7220617070726f76656420666f7220616c6c0000000000000000602082015250565b6000612175603883611aab565b915061218082612119565b604082019050919050565b600060208201905081810360008301526121a481612168565b9050919050565b7f4e487b7100000000000000000000000000000000000000000000000000000000600052601160045260246000fd5b60006121e582611b5b565b91507fffffffffffffffffffffffffffffffffffffffffffffffffffffffffffffffff821415612218576122176121ab565b5b600182019050919050565b7f4552433732313a207472616e736665722063616c6c6572206973206e6f74206f60008201527f776e6572206e6f7220617070726f766564000000000000000000000000000000602082015250565b600061227f603183611aab565b915061228a82612223565b604082019050919050565b600060208201905081810360008301526122ae81612272565b9050919050565b7f4552433732313a206f776e657220717565727920666f72206e6f6e657869737460008201527f656e7420746f6b656e0000000000000000000000000000000000000000000000602082015250565b6000612311602983611aab565b915061231c826122b5565b604082019050919050565b6000602082019050818103600083015261234081612304565b9050919050565b7f4552433732313a2062616c616e636520717565727920666f7220746865207a6560008201527f726f206164647265737300000000000000000000000000000000000000000000602082015250565b60006123a3602a83611aab565b91506123ae82612347565b604082019050919050565b600060208201905081810360008301526123d281612396565b9050919050565b7f4f776e61626c653a2063616c6c6572206973206e6f7420746865206f776e6572600082015250565b600061240f602083611aab565b915061241a826123d9565b602082019050919050565b6000602082019050818103600083015261243e81612402565b9050919050565b7f4552433732313a20617070726f766520746f2063616c6c657200000000000000600082015250565b600061247b601983611aab565b915061248682612445565b602082019050919050565b600060208201905081810360008301526124aa8161246e565b9050919050565b7f4552433732314d657461646174613a2055524920717565727920666f72206e6f60008201527f6e6578697374656e7420746f6b656e0000000000000000000000000000000000602082015250565b600061250d602f83611aab565b9150612518826124b1565b604082019050919050565b6000602082019050818103600083015261253c81612500565b9050919050565b600081905092915050565b600061255982611aa0565b6125638185612543565b9350612573818560208601611abc565b80840191505092915050565b600061258b828561254e565b9150612597828461254e565b91508190509392505050565b7f4f776e61626c653a206e6577206f776e657220697320746865207a65726f206160008201527f6464726573730000000000000000000000000000000000000000000000000000602082015250565b60006125ff602683611aab565b915061260a826125a3565b604082019050919050565b6000602082019050818103600083015261262e816125f2565b9050919050565b7f4552433732313a206f70657261746f7220717565727920666f72206e6f6e657860008201527f697374656e7420746f6b656e0000000000000000000000000000000000000000602082015250565b6000612691602c83611aab565b915061269c82612635565b604082019050919050565b600060208201905081810360008301526126c081612684565b9050919050565b7f4552433732313a207472616e73666572206f6620746f6b656e2074686174206960008201527f73206e6f74206f776e0000000000000000000000000000000000000000000000602082015250565b6000612723602983611aab565b915061272e826126c7565b604082019050919050565b6000602082019050818103600083015261275281612716565b9050919050565b7f4552433732313a207472616e7366657220746f20746865207a65726f2061646460008201527f7265737300000000000000000000000000000000000000000000000000000000602082015250565b60006127b5602483611aab565b91506127c082612759565b604082019050919050565b600060208201905081810360008301526127e4816127a8565b9050919050565b60006127f682611b5b565b915061280183611b5b565b925082821015612814576128136121ab565b5b828203905092915050565b600061282a82611b5b565b915061283583611b5b565b9250827fffffffffffffffffffffffffffffffffffffffffffffffffffffffffffffffff0382111561286a576128696121ab565b5b828201905092915050565b7f4552433732313a207472616e7366657220746f206e6f6e20455243373231526560008201527f63656976657220696d706c656d656e7465720000000000000000000000000000602082015250565b60006128d1603283611aab565b91506128dc82612875565b604082019050919050565b60006020820190508181036000830152612900816128c4565b9050919050565b7f4e487b7100000000000000000000000000000000000000000000000000000000600052601260045260246000fd5b600061294182611b5b565b915061294c83611b5b565b92508261295c5761295b612907565b5b828204905092915050565b600061297282611b5b565b915061297d83611b5b565b92508261298d5761298c612907565b5b828206905092915050565b7f4e487b7100000000000000000000000000000000000000000000000000000000600052603260045260246000fd5b600081519050919050565b600082825260208201905092915050565b60006129ee826129c7565b6129f881856129d2565b9350612a08818560208601611abc565b612a1181611aef565b840191505092915050565b6000608082019050612a316000830187611bf0565b612a3e6020830186611bf0565b612a4b6040830185611d06565b8181036060830152612a5d81846129e3565b905095945050505050565b600081519050612a7781611a11565b92915050565b600060208284031215612a9357612a926119db565b5b6000612aa184828501612a68565b91505092915050565b7f4552433732313a206d696e7420746f20746865207a65726f2061646472657373600082015250565b6000612ae0602083611aab565b9150612aeb82612aaa565b602082019050919050565b60006020820190508181036000830152612b0f81612ad3565b9050919050565b7f4552433732313a20746f6b656e20616c7265616479206d696e74656400000000600082015250565b6000612b4c601c83611aab565b9150612b5782612b16565b602082019050919050565b60006020820190508181036000830152612b7b81612b3f565b905091905056fea2646970667358221220fc9ab7dd0291ef572afc8c3674ec5e5b220c749345a76a0df0567d24610ac03264736f6c63430008090033",
  "immutableReferences": {},
  "source": "/* // SPDX-License-Identifier: MIT\npragma solidity >=0.4.21 <0.7.0;\n\ncontract SimpleStorage {\n  uint storedData;\n\n  function set(uint x) public {\n    storedData = x;\n  }\n\n  function get() public view returns (uint) {\n    return storedData;\n  }\n} */\n\n\npragma solidity ^0.8.0;\n\nimport \"@openzeppelin/contracts/token/ERC721/ERC721.sol\";\nimport \"@openzeppelin/contracts/access/Ownable.sol\";\nimport { Base64 } from \"./Base64.sol\";\n\n\n\ncontract Sploot is ERC721, Ownable {\n  // Max and total supply\n  uint public maxSupply = 100;\n  uint internal totalSupply = 0;\n\n  // Owner of the Colors contract (msg.sender)\n  address contractOwner;\n\n  constructor() ERC721(\"SPLOOT\", \"SPLOOT\") {\n    contractOwner = msg.sender;\n  }\n\n  function mint() public {\n    _safeMint(msg.sender, totalSupply);\n    totalSupply++;\n  }\n\n  // Utils\n  function getOwnerCount(address account) public view returns (uint) {\n    return balanceOf(account);\n  }\n\n  function getTotalSupply() public view returns (uint) {\n    return totalSupply;\n  }\n}\n",
  "sourcePath": "/Users/millerkinlin/Projects/sploot-nft/contracts/Sploot.sol",
  "compiler": {
    "name": "solc",
    "version": "0.8.9+commit.e5eed63a.Emscripten.clang"
  },
  "schemaVersion": "3.4.3",
  "updatedAt": "2021-10-20T01:20:27.768Z",
  "networkType": "ethereum",
  "devdoc": {
    "kind": "dev",
    "methods": {
      "approve(address,uint256)": {
        "details": "See {IERC721-approve}."
      },
      "balanceOf(address)": {
        "details": "See {IERC721-balanceOf}."
      },
      "getApproved(uint256)": {
        "details": "See {IERC721-getApproved}."
      },
      "isApprovedForAll(address,address)": {
        "details": "See {IERC721-isApprovedForAll}."
      },
      "name()": {
        "details": "See {IERC721Metadata-name}."
      },
      "owner()": {
        "details": "Returns the address of the current owner."
      },
      "ownerOf(uint256)": {
        "details": "See {IERC721-ownerOf}."
      },
      "renounceOwnership()": {
        "details": "Leaves the contract without owner. It will not be possible to call `onlyOwner` functions anymore. Can only be called by the current owner. NOTE: Renouncing ownership will leave the contract without an owner, thereby removing any functionality that is only available to the owner."
      },
      "safeTransferFrom(address,address,uint256)": {
        "details": "See {IERC721-safeTransferFrom}."
      },
      "safeTransferFrom(address,address,uint256,bytes)": {
        "details": "See {IERC721-safeTransferFrom}."
      },
      "setApprovalForAll(address,bool)": {
        "details": "See {IERC721-setApprovalForAll}."
      },
      "supportsInterface(bytes4)": {
        "details": "See {IERC165-supportsInterface}."
      },
      "symbol()": {
        "details": "See {IERC721Metadata-symbol}."
      },
      "tokenURI(uint256)": {
        "details": "See {IERC721Metadata-tokenURI}."
      },
      "transferFrom(address,address,uint256)": {
        "details": "See {IERC721-transferFrom}."
      },
      "transferOwnership(address)": {
        "details": "Transfers ownership of the contract to a new account (`newOwner`). Can only be called by the current owner."
      }
    },
    "version": 1
  },
  "userdoc": {
    "kind": "user",
    "methods": {},
    "version": 1
  }
}