{
  "contractName": "Verify",
  "abi": [
    {
      "inputs": [
        {
          "internalType": "address",
          "name": "sigAddress",
          "type": "address"
        }
      ],
      "stateMutability": "nonpayable",
      "type": "constructor"
    },
    {
      "inputs": [
        {
          "internalType": "uint256",
          "name": "data",
          "type": "uint256"
        },
        {
          "internalType": "bytes",
          "name": "signature",
          "type": "bytes"
        }
      ],
      "name": "verifyMinter",
      "outputs": [
        {
          "internalType": "bool",
          "name": "",
          "type": "bool"
        }
      ],
      "stateMutability": "view",
      "type": "function"
    }
  ],
  "bytecode": "0x608060405234801561001057600080fd5b506040516106a53803806106a5833981810160405281019061003291906100db565b806000806101000a81548173ffffffffffffffffffffffffffffffffffffffff021916908373ffffffffffffffffffffffffffffffffffffffff16021790555050610108565b600080fd5b600073ffffffffffffffffffffffffffffffffffffffff82169050919050565b60006100a88261007d565b9050919050565b6100b88161009d565b81146100c357600080fd5b50565b6000815190506100d5816100af565b92915050565b6000602082840312156100f1576100f0610078565b5b60006100ff848285016100c6565b91505092915050565b61058e806101176000396000f3fe608060405234801561001057600080fd5b506004361061002b5760003560e01c8063da858d5014610030575b600080fd5b61004a60048036038101906100459190610372565b610060565b60405161005791906103e9565b60405180910390f35b60008061006c846100cf565b905060008054906101000a900473ffffffffffffffffffffffffffffffffffffffff1673ffffffffffffffffffffffffffffffffffffffff166100af828561012a565b73ffffffffffffffffffffffffffffffffffffffff161491505092915050565b600080826040516020016100e39190610425565b6040516020818303038152906040528051906020012090508060405160200161010c91906104c2565b60405160208183030381529060405280519060200120915050919050565b6000806000806101398561019f565b809350819450829550505050600186848484604051600081526020016040526040516101689493929190610513565b6020604051602081039080840390855afa15801561018a573d6000803e3d6000fd5b50505060206040510351935050505092915050565b600080600060418451146101b257600080fd5b60008060006020870151925060408701519150606087015160001a90508083839550955095505050509193909250565b6000604051905090565b600080fd5b600080fd5b6000819050919050565b610209816101f6565b811461021457600080fd5b50565b60008135905061022681610200565b92915050565b600080fd5b600080fd5b6000601f19601f8301169050919050565b7f4e487b7100000000000000000000000000000000000000000000000000000000600052604160045260246000fd5b61027f82610236565b810181811067ffffffffffffffff8211171561029e5761029d610247565b5b80604052505050565b60006102b16101e2565b90506102bd8282610276565b919050565b600067ffffffffffffffff8211156102dd576102dc610247565b5b6102e682610236565b9050602081019050919050565b82818337600083830152505050565b6000610315610310846102c2565b6102a7565b90508281526020810184848401111561033157610330610231565b5b61033c8482856102f3565b509392505050565b600082601f8301126103595761035861022c565b5b8135610369848260208601610302565b91505092915050565b60008060408385031215610389576103886101ec565b5b600061039785828601610217565b925050602083013567ffffffffffffffff8111156103b8576103b76101f1565b5b6103c485828601610344565b9150509250929050565b60008115159050919050565b6103e3816103ce565b82525050565b60006020820190506103fe60008301846103da565b92915050565b6000819050919050565b61041f61041a826101f6565b610404565b82525050565b6000610431828461040e565b60208201915081905092915050565b600081905092915050565b7f19457468657265756d205369676e6564204d6573736167653a0a333200000000600082015250565b6000610481601c83610440565b915061048c8261044b565b601c82019050919050565b6000819050919050565b6000819050919050565b6104bc6104b782610497565b6104a1565b82525050565b60006104cd82610474565b91506104d982846104ab565b60208201915081905092915050565b6104f181610497565b82525050565b600060ff82169050919050565b61050d816104f7565b82525050565b600060808201905061052860008301876104e8565b6105356020830186610504565b61054260408301856104e8565b61054f60608301846104e8565b9594505050505056fea2646970667358221220257f08089cca87ea8ece0e47eeb6fb936d7f8dd47a1d851931402ef0e97ea14c64736f6c63430008090033",
  "immutableReferences": {},
  "source": "// SPDX-License-Identifier: MIT\n\npragma solidity ^0.8.0;\n\ncontract Verify {\n    address signatureAddress;\n\n    constructor(address sigAddress) {\n        signatureAddress = sigAddress;\n    }\n\n  function recoverSigner(bytes32 message, bytes memory sig) private pure returns (address) {\n       uint8 v;\n       bytes32 r;\n       bytes32 s;\n       (v, r, s) = splitSignature(sig);\n       return ecrecover(message, v, r, s);\n  }\n\n  function splitSignature(bytes memory sig) private pure returns (uint8, bytes32, bytes32) {\n       require(sig.length == 65);\n\n       bytes32 r;\n       bytes32 s;\n       uint8 v;\n       assembly {\n           r := mload(add(sig, 32))\n           s := mload(add(sig, 64))\n           v := byte(0, mload(add(sig, 96)))\n       }\n       return (v, r, s);\n   }\n\n   function hash(uint256 numbers) private pure returns(bytes32) {\n        bytes32 base_message =  keccak256(abi.encodePacked(numbers));\n        return keccak256(abi.encodePacked( \"\\x19Ethereum Signed Message:\\n32\" , base_message ));\n   }\n\n   function verifyMinter(uint256 data, bytes memory signature) public view returns(bool) {\n       bytes32 message = hash(data);\n       return recoverSigner(message, signature) == signatureAddress;\n   }\n}\n",
  "sourcePath": "/Users/millerkinlin/Projects/sploot-nft/contracts/Verify.sol",
  "compiler": {
    "name": "solc",
    "version": "0.8.9+commit.e5eed63a.Emscripten.clang"
  },
  "schemaVersion": "3.4.3",
  "updatedAt": "2021-10-28T03:10:30.780Z",
  "devdoc": {
    "kind": "dev",
    "methods": {},
    "version": 1
  },
  "userdoc": {
    "kind": "user",
    "methods": {},
    "version": 1
  }
}